:020000040000FA
:04000000803105281E
:1000080009006A21162192101210121192119112F0
:100018001114911491151115AA01AF010230A00015
:1000280054222E08A100A001542203302E02B6004B
:100038008330F5001A30F6003608F900FA01CA23B1
:100048007508B8007608B90004303802B6000030E8
:10005800393BB7003608F5003708F6000530F900D7
:10006800FA01CA237508A2000130A0005422033007
:100078002E02B6008330F5001A30F6003608F90073
:10008800FA01CA237508B8007608B90004303802A6
:10009800B6000030393BB7003608F5003708F600DF
:1000A8000530F900FA01CA237508A3000330A0003F
:1000B80054222E08AB009D20A601A501E62111308F
:1000C800B2008430B300FE212F08A7001F2206309B
:1000D8002102031872289616C32074289612172432
:1000E80012286300752831110F183115941719104B
:1000F800991419150230F000F00B80280000B11394
:100108008F1BB11719110230F000F00B892800007D
:1001180019150230F000F00B8F2819110230F00089
:10012800F00B94280000B11B7D28191031191914FF
:10013800080019100130A40085210430F200F301F1
:10014800B5208030A40085218530F000F00BAA2866
:1001580008001930F000F00BAF280000F50BAD28AF
:100168000800F30A0E30F100BD30F000F00BBA2899
:10017800F10BB828F20BB628F30BB6280800962323
:1001880096165830F2001B30F300B520AC012C0352
:100198000319152997141710171197156430F200D1
:1001A800F301B5209623B830F2000B30F300B520E8
:1001B80097141710171197156430F200F301B52042
:1001C8009623B830F2000B30F300B52097101714BF
:1001D80017159711C830F200F301B5209623B830EF
:1001E800F2000B30F300B52097101714171597116C
:1001F800C830F200F301B5209623B830F2000B3076
:10020800F300B5209714171017119715C830F2008E
:10021800F301B5209B236430F200F301B520AC0A4A
:10022800CB2808003230F200F301B5209410991061
:100238001412941214139413141014111910191180
:1002480099131913991619160530F000F00B2A297D
:1002580019150530F000F00B2F2919110A30F2009A
:10026800F301B5200330B50019150530F000F00B87
:100278003B2919110130F200F301B520B50B3829DB
:1002880099131913991619120530F000F00B4A2921
:1002980019150530F000F00B4F2919110130F10044
:1002A800F001F00B5529F10B54290930F000F00B3F
:1002B8005B292830A40085210630A40085210C3054
:1002C800A40085219D200C30A90008006030310071
:1002D8008D008F01910192010630930021001311C6
:1002E80093133E00B801C301CE01D901E4013300E4
:1002F8009413901320008C018D018E018F019001C1
:100308000800772099101412941214139413991357
:10031800A41B99171913241B19179912A41A9916B3
:100328001912241A19160230F000F00B992900004E
:1003380019150230F000F00B9F2919119913A4190F
:1003480099171913241919179912A418991619121B
:10035800241819160230F000F00BB0290000191506
:100368000230F000F00BB6291911E230F000F00B62
:10037800BB2900000F18CA29103024020318CA2903
:100388002408073C0318CA292408A9000800971064
:100398001711171097112C30F2000130F300B52017
:1003A80097101714171597119030F2000130F300C9
:1003B800B52097101711171097112C30F200013043
:1003C800F300B52819102608013C0318EF2902305C
:1003D800A6021430A5072608F5004030F900FE23D0
:1003E80025087007B60080303604A4008521053042
:1003F800F500AD2832088400330885000008AD00F8
:10040800AD080319080019140130B4003408320784
:1004180084000030333D85000008A400852134089D
:100428002D02B600F500F9019E23F009701C1E2A62
:10043800B40A0A2A0800A801191464302702031C08
:10044800322A2708F5006430F900B6237508A80099
:100458007008A70030302807A40085212808F90073
:10046800F501AF237008B6002708F5000A30F90037
:10047800AF23F00936087004B800381C502A270842
:10048800F5000A30F900B6237508A8007008A7001F
:1004980030302807A400852130302707A40085299B
:1004A800210013112000200821009E002000A00830
:1004B800031D612A3E0038144D2B2003031D672AB3
:1004C8003E00B8144D2B02302002031D6E2A3E0058
:1004D80038154D2B03302002031D752A3E00B81530
:1004E8004D2B04302002031D7C2A3E0038164D2B6C
:1004F80005302002031D832A3E00B8164D2B063016
:100508002002031D8A2A3E0038174D2B073020028F
:10051800031D912A3E00B8174D2B08302002031DF9
:10052800982A3E0043144D2B09302002031D9F2AB0
:100538003E00C3144D2B0A302002031DA62A3E009C
:1005480043154D2B0B302002031DAD2A3E00C31569
:100558004D2B0C302002031DB42A3E0043164D2BB0
:100568000D302002031DBB2A3E00C3164D2B0E3052
:100578002002031DC22A3E0043174D2B0F302002D4
:10058800031DC92A3E00C3174D2B10302002031D3E
:10059800D02A3E004E144D2B11302002031DD72ABD
:1005A8003E00CE144D2B12302002031DDE2A3E00E1
:1005B8004E154D2B13302002031DE52A3E00CE15A3
:1005C8004D2B14302002031DEC2A3E004E164D2BF5
:1005D80015302002031DF32A3E00CE164D2B16308F
:1005E8002002031DFA2A3E004E174D2B1730200219
:1005F800031D012B3E00CE174D2B18302002031D82
:10060800082B3E0059144D2B19302002031D0F2BC7
:100618003E00D9144D2B1A302002031D162B3E0024
:1006280059154D2B1B302002031D1D2B3E00D915DB
:100638004D2B1C302002031D242B3E0059164D2B38
:100648001D302002031D2B2B3E00D9164D2B1E30CA
:100658002002031D322B3E0059174D2B1F3020025C
:10066800031D392B3E00D9174D2B20302002031DC6
:10067800402B3E0064144D2B21302002031D472BD4
:100688003E00E4144D2B22302002031D4D2B3E006A
:100698006415210013120130980013120F309800CE
:1006A800131113112000200821009E009317023017
:1006B800F5002000AD202100131400001318622B50
:1006C80093133E00B801C301CE01D901E401210012
:1006D8000D082000AE00210013112000080097101B
:1006E80017112C30F2000130F300B52097141710C1
:1006F800171197154F30F2000130F300B52097100D
:100708001711171097112C30F2000130F300B5289B
:10071800971017151710971108009714171117102D
:1007280097110800971017101711971108009714C0
:1007380017150800F001750879020319F009080077
:10074800F00175087902031D080076087A02031D76
:100758000800F0090800F001031479087502031C69
:10076800F0090800F90803190800F0010830F4003E
:100778000310F50DF00D7908F00275140318C72B56
:1007880075107908F007F40BBC2B08007508F70002
:100798007608F8007908FB007A08FC00F201F301FA
:1007A8007B08F5007C08F600F901FA01A423701C07
:1007B800E02BF501F60108001030F4000310F70DE6
:1007C800F80DF20DF30D7B08F2027C08F33B771469
:1007D8000318F32B77107B08F2077C08F33DF40B22
:1007E800E22B7708F5007808F6007208F000730825
:1007F800F1000800F00175087918F0070310F90CEA
:100808000310F50DF908031DFF2B080078088A006E
:100818007708F70A0319F80A820005347234693434
:10082800673468347434AF08031D1D2CCB210130A4
:10083800AF0002302F02031D362C97141715C8304D
:10084800F200F301B5209B231430F2000530F300C9
:10085800B52073239B232030F2000330F300B5202A
:100868000330AF0005302F02031D4E2C97141710CC
:1008780017159711AA30F2000530F300B520971428
:100888001710171197156430F200F301B520732380
:100898000730AF0008302F02031D6A2C9714171574
:1008A800C830F200F301B5209B237230F200063005
:1008B800F300B52073239714171017159711C2303A
:1008C800F2000130F300B5200930AF000B302F02E1
:1008D800031D7A2C97141710171597115030F20032
:1008E8000730F300B52073230C30AF000D302F0212
:1008F800031D2A2D97141710171597114C30F20065
:100908000430F300B520CB21971417101715971151
:100918008430F2000330F300B520CB219714171070
:10092800171197156430F200F301B5209623E830CB
:10093800F2000330F300B520263021020318AE2C54
:100948009714171017159711C830F200F301B52046
:100958009616C3209710171417159711C830F20070
:10096800F301B5209623E830F2000330F300B520F8
:10097800263021020318CA2C97141710171597113F
:10098800C830F200F301B5209616C320971417104B
:10099800171197156430F200F301B5209623E8305B
:1009A800F2000330F300B5207323971417101715BE
:1009B80097114530F2000630F300B520CB2197148B
:1009C8001710171597112C30F2000130F300B520DD
:1009D800C32097101714171597116430F200F3010C
:1009E800B52097141710171197156430F200F3010A
:1009F800B5209623E830F2000330F300B520263006
:100A080021020318112D9714171017159711C830C4
:100A1800F200F301B5209616C32097101714171586
:100A28009711C830F200F301B5209623E830F200A0
:100A38000330F300B520263021020318262D962313
:100A48009616C3201A302202031C96232208103C53
:100A580003184B2D2308113C03183D2D8C2314300B
:100A6800F200F301B5209B230330F200F301B52017
:100A78004A2D2308093C031C432D91234A2D0C3091
:100A88002302031C492D8C234A2D9B234D2D7323B0
:040A9800AF0A080099
:020000040001F9
:0A000E008C3FFE3F9F3FFF1FFF3FA6
:00000001FF
